:020000040000FA
:100000000C947B230C94AC230C94AC230C94AC2365
:100010000C94AC230C94AC230C94AC230C94AC2324
:100020000C94AC230C94AC230C94AC230C94AC2314
:100030000C94AC230C94AC230C94AC230C94AC2304
:100040000C94AC230C94AC230C94AC230C94AC23F4
:100050000C94AC230C94AC230C94AC230C9434552A
:100060000C94AC230C94A8550C947E550C94AC23A2
:100070000C94AC230C94AC230C94AC230C94AC23C4
:100080000C94AC230C94AC230C94AC230C94AC23B4
:100090000C94AC230C94AC230C94AC230C94AC23A4
:1000A0000C94AC230C94AC230C94AC230C94AC2394
:1000B0000C94AC230C94AC230C94AC230C94AC2384
:1000C0000C94AC230C94AC230C94AC230C94AC2374
:1000D0000C94AC230C94AC230C94AC230C94AC2364
:1000E0000C94AC230C9434240C94FA2C0C948E2590
:1000F0000C9415240C949C250C9419240C94212602
:100100000C943E240C94973A0C9430440C94D12CCB
:100110000C94962C0C94D4250C94292D0C94DE551B
:100120000C94A03D0C9420240C941D240C94382491
:100130000C9486310C94C23B0C943E250C94C23036
:100140000C9450240C9417440C94BA3C0C94DE305C
:100150000C944B240C9411240C944C2C0C942A24B5
:100160000C94162D0C9430240C946D420C949C3FEE
:100170000C9426240C947A250C9423330C94472D4C
:100180000C94212C0C942C2E0C94DA400C94683591
:100190000C94DE340C940B240C944C2F0C94782C7F
:1001A0000C94AE3E0C9446240C9495390C945E2D20
:1001B0000C9442240C94BB2C0C948D380C94802D00
:1001C0000C944C240C944F370C946B25080C205F36
:1001D00000000000000000000000000000002020DF
:1001E00020202020002000000028505000000000A7
:1001F0000000000000002828FC2850FC505000009F
:10020000002078A8A0603028A8F02000000048A8AE
:10021000B050283454480000000020505078A8A85E
:10022000906C0000004040800000000000000000D2
:1002300000040810101010101008040000402010D6
:10024000101010101020400000000020A87070A8AE
:10025000200000000000202020F8202020000000C6
:10026000000000000000000000404080000000008E
:1002700000F8000000000000000000000000000086
:100280000040000000081010102020404040800076
:1002900000007088888888888870000000002060CE
:1002A000202020202070000000007088881020404E
:1002B00080F800000000708808300808887000008E
:1002C0000000103050509078101800000000F880A6
:1002D00080F00808887000000000709080F0888826
:1002E000887000000000F8901020202020200000DE
:1002F000000070888870888888700000000070880E
:100300008888780848700000000000002000000085
:10031000002000000000000000200000002020005D
:100320000004081020402010080400000000000015
:10033000F80000F800000000004020100804081039
:10034000204000000000708888102020002000005D
:100350000000708898A8A8B88078000000002020CD
:100360003050507848CC00000000F04848704848B1
:1003700048F000000000788880808080887000004D
:100380000000F0484848484848F000000000F8489D
:100390005070504048F800000000F848507050403D
:1003A00040E000000000384880809C884830000011
:1003B0000000CC484878484848CC00000000F820AD
:1003C0002020202020F8000000007C1010101010C9
:1003D0001090E0000000EC485060505048EC0000E5
:1003E0000000E0404040404044FC00000000D8D8FD
:1003F000D8D8A8A8A8A800000000DC486868585809
:1004000048E80000000070888888888888700000AC
:100410000000F0484870404040E000000000708854
:10042000888888E8987018000000F04848705048A4
:1004300048EC0000000078888060100888F0000018
:100440000000F8A820202020207000000000CC48E8
:1004500048484848483000000000CC4848505030D8
:10046000202000000000A8A8A870505050500000A4
:100470000000D8505020205050D800000000D85024
:1004800050202020207000000000F8901020204014
:1004900048F80000003820202020202020203800AC
:1004A0000040404020201010100800000070101084
:1004B00010101010101070000020500000000000FC
:1004C000000000000000000000000000000000FC30
:1004D00000200000000000000000000000000000FC
:1004E00000304838483C00000000C0404070484898
:1004F000487000000000000000384840403800000C
:100500000000180808384848483C00000000000077
:10051000003048784038000000001C20207820205F
:100520002078000000000000003C4830407844384B
:100530000000C0404070484848EC00000000200027
:10054000006020202070000000001000003010101B
:10055000101010E00000C040405C507048EC0000FB
:100560000000E0202020202020F8000000000000F3
:1005700000F0A8A8A8A800000000000000F048486B
:1005800048EC0000000000000030484848300000FF
:100590000000000000F04848487040E00000000003
:1005A000003848484838081C0000000000D8604067
:1005B00040E00000000000000078403008780000B3
:1005C0000000002020702020201800000000000003
:1005D00000D84848483C00000000000000EC4850AB
:1005E000302000000000000000A8A870505000005B
:1005F0000000000000D8502050D80000000000008B
:1006000000EC4850302020C000000000007810208E
:100610002078000000181010102010101010180082
:10062000101010101010101010101010006020206A
:10063000201020202020600040A4180000000000AE
:10064000000000002032300A00000000000000001E
:1006500000FFFE0001FFFF0003FFFF8001FFFF60BE
:100660000CFFFEF01E0001F83F0001F83F0001F80A
:100670003F0001F83F0001F83F0001F83F0001F89A
:100680003F0001F83F0001F83F0001F83F0001F88A
:100690003F0001F83F0001F83F0001F83E000078FC
:1006A00038000018200000080000000020000000B2
:1006B000380000183E0000783F0001F83F0001F8C4
:1006C0003F0001F83F0001F83F0001F83F0001F84A
:1006D0003F0001F83F0001F83F0001F83F0001F83A
:1006E0003F0001F83F0001F83F0001F83F0001F82A
:1006F0001E0000F00CFFFE6001FFFF0003FFFF8003
:1007000001FFFF0000FFFE000000000000000000ED
:1007100000000000000000000000000000000000D9
:100720000000000000000060000000F0000001F880
:10073000000001F8000001F8000001F8000001F8D5
:10074000000001F8000001F8000001F8000001F8C5
:10075000000001F8000001F8000001F8000001F8B5
:10076000000001F8000000780000001800000008F8
:1007700000000000000000000000001800000078E9
:10078000000001F8000001F8000001F8000001F885
:10079000000001F8000001F8000001F8000001F875
:1007A000000001F8000001F8000001F8000001F865
:1007B000000001F8000001F8000000F000000060F7
:1007C0000000000000000000000000000000000029
:1007D0000000000000000000000000000000000019
:1007E00000FFFE0001FFFF0003FFFF8001FFFF602D
:1007F00000FFFEF0000001F8000001F8000001F821
:10080000000001F8000001F8000001F8000001F804
:10081000000001F8000001F8000001F8000001F8F4
:10082000000001F8000001F8000001F80000007865
:1008300001FFFE1803FFFF880FFFFFE027FFFFC047
:1008400039FFFF003E0000003F0000003F000000B5
:100850003F0000003F0000003F0000003F0000009C
:100860003F0000003F0000003F0000003F0000008C
:100870003F0000003F0000003F0000003F0000007C
:100880001E0000000CFFFE0001FFFF0003FFFF80C1
:1008900001FFFF0000FFFE0000000000000000005C
:1008A000000000000000000000FFFE0001FFFF004C
:1008B00003FFFF8001FFFF6000FFFEF0000001F872
:1008C000000001F8000001F8000001F8000001F844
:1008D000000001F8000001F8000001F8000001F834
:1008E000000001F8000001F8000001F8000001F824
:1008F000000001F80000007801FFFE1803FFFF88E8
:100900000FFFFFE007FFFFC001FFFF1800000078A6
:10091000000001F8000001F8000001F8000001F8F3
:10092000000001F8000001F8000001F8000001F8E3
:10093000000001F8000001F8000001F8000001F8D3
:10094000000001F8000001F8000000F000FFFE6068
:1009500001FFFF0003FFFF8001FFFF0000FFFE001B
:100960000000000000000000000000000000000087
:100970000000000000000000000000000000006017
:100980000C0000F01E0001F83F0001F83F0001F8E4
:100990003F0001F83F0001F83F0001F83F0001F877
:1009A0003F0001F83F0001F83F0001F83F0001F867
:1009B0003F0001F83F0001F83F0001F83E000078D9
:1009C00039FFFE1823FFFF880FFFFFE007FFFFC07E
:1009D00001FFFF1800000078000001F8000001F896
:1009E000000001F8000001F8000001F8000001F823
:1009F000000001F8000001F8000001F8000001F813
:100A0000000001F8000001F8000001F8000001F802
:100A1000000000F000000060000000000000000086
:100A200000000000000000000000000000000000C6
:100A3000000000000000000000FFFE0001FFFF00BA
:100A400003FFFF8001FFFF000CFFFE001E000000FF
:100A50003F0000003F0000003F0000003F0000009A
:100A60003F0000003F0000003F0000003F0000008A
:100A70003F0000003F0000003F0000003F0000007A
:100A80003F0000003E00000039FFFE0023FFFF8012
:100A90000FFFFFE007FFFFC001FFFF180000007815
:100AA000000001F8000001F8000001F8000001F862
:100AB000000001F8000001F8000001F8000001F852
:100AC000000001F8000001F8000001F8000001F842
:100AD000000001F8000001F8000000F000FFFE60D7
:100AE00001FFFF0003FFFF8001FFFF0000FFFE008A
:100AF00000000000000000000000000000000000F6
:100B000000FFFE0001FFFF0003FFFF8001FFFF0069
:100B10000CFFFE001E0000003F0000003F00000030
:100B20003F0000003F0000003F0000003F000000C9
:100B30003F0000003F0000003F0000003F000000B9
:100B40003F0000003F0000003F0000003E000000AA
:100B500039FFFE0023FFFF800FFFFFE027FFFFC0EC
:100B600039FFFF183E0000783F0001F83F0001F810
:100B70003F0001F83F0001F83F0001F83F0001F895
:100B80003F0001F83F0001F83F0001F83F0001F885
:100B90003F0001F83F0001F83F0001F83F0001F875
:100BA0001E0000F00CFFFE6001FFFF0003FFFF804E
:100BB00001FFFF0000FFFE00000000000000000039
:100BC000000000000000000000FFFE0001FFFF0029
:100BD00003FFFF8001FFFF6000FFFEF0000001F84F
:100BE000000001F8000001F8000001F8000001F821
:100BF000000001F8000001F8000001F8000001F811
:100C0000000001F8000001F8000001F8000001F800
:100C1000000001F800000078000000180000000843
:100C20000000000000000000000000180000007834
:100C3000000001F8000001F8000001F8000001F8D0
:100C4000000001F8000001F8000001F8000001F8C0
:100C5000000001F8000001F8000001F8000001F8B0
:100C6000000001F8000001F8000000F00000006042
:100C70000000000000000000000000000000000074
:100C80000000000000000000000000000000000064
:100C900000FFFE0001FFFF0003FFFF8001FFFF6078
:100CA0000CFFFEF01E0001F83F0001F83F0001F8C4
:100CB0003F0001F83F0001F83F0001F83F0001F854
:100CC0003F0001F83F0001F83F0001F83F0001F844
:100CD0003F0001F83F0001F83F0001F83E000078B6
:100CE00039FFFE1823FFFF880FFFFFE027FFFFC03B
:100CF00039FFFF183E0000783F0001F83F0001F87F
:100D00003F0001F83F0001F83F0001F83F0001F803
:100D10003F0001F83F0001F83F0001F83F0001F8F3
:100D20003F0001F83F0001F83F0001F83F0001F8E3
:100D30001E0000F00CFFFE6001FFFF0003FFFF80BC
:100D400001FFFF0000FFFE000000000000000000A7
:100D5000000000000000000000FFFE0001FFFF0097
:100D600003FFFF8001FFFF600CFFFEF01E0001F893
:100D70003F0001F83F0001F83F0001F83F0001F893
:100D80003F0001F83F0001F83F0001F83F0001F883
:100D90003F0001F83F0001F83F0001F83F0001F873
:100DA0003F0001F83E00007839FFFE1823FFFF885E
:100DB0000FFFFFE007FFFFC001FFFF1800000078F2
:100DC000000001F8000001F8000001F8000001F83F
:100DD000000001F8000001F8000001F8000001F82F
:100DE000000001F8000001F8000001F8000001F81F
:100DF000000001F8000001F8000000F000FFFE60B4
:100E000001FFFF0003FFFF8001FFFF0000FFFE0066
:100E10000000000000000000396E396E5976396E0E
:100E2000396E396E396E396E396E396E396E396E8A
:100E3000396E396E396E39763A6E5A6E3A6E397647
:100E4000396E396E5A6E5A6E396E396E396E396E28
:100E5000396E396E396E396E59765A6E5A6E396EF0
:100E6000396E5A6E396E396E396E396E396E396E29
:100E7000396E396E396E5A6E5A6E5A6E5A6E3A6EB5
:100E8000196E3A6E5A6E5A6E5A6E196E396E5A6EE5
:100E90005A6E5A6E396E396E396E396E396E5A6EB7
:100EA000396E3A76596E3A767A765A765A765A7614
:100EB0005A765A765A765A765A767A765A76196EDB
:100EC000F96D196ED775757DD77D1876D86DF86D6B
:100ED000977D977DF875F86D5A767A765A765A76B8
:100EE0005A765A767A765A763A76396E396E5A76D4
:100EF0003976397639763976397639765A765A7638
:100F0000D86D5575CF8C8C8CAC944BAD8BB5CB9C80
:100F1000ED7BEF7BB394B7B576ADD394928C3575FA
:100F2000396E5A763976397639765A76396E3A7616
:100F3000396E396E5A763976397639763976397628
:100F40005A763A6E356D4D84EAA4C8E685FF66F799
:100F500085FF27EFECA415A57EF7FFFFFFFFFFFF3E
:100F6000FFFF5DEFF49C157539765A6E3976397648
:100F70005A76396E3A76396E396E5A7639763976CE
:100F8000397639765A76F975926C8A94A8E685FF97
:100F900066F786F785F786FF2AAD97B5FFFFFFFF57
:100FA000FFFFFFFFFFFFFFFFFFFFDFFF14A535750A
:100FB000396E5A7639765A76396E3A76396E396E96
:100FC0005A763976397639765A76F975316CA99C24
:100FD00067F785FF66F766F766F7A5FF29CE74AD5C
:100FE0007EEFFFFFFFFFFFFFFFFFFFFF5DEFBEF79D
:100FF000FFFF5DEFB38CB76D5A6E39765A76396E56
:101000003A76396E396E5A76397639765A6E396E45
:101010009274A89C67F786F766F766F766F766F737
:10102000A5FF89B5B8B5FFFFFFFFFFFFFFFFFFFF7B
:10103000BAD6107C9AD6FFFFFFFFF49C976D5A6ECC
:1010400039765A76396E3A76396E396E5A763976FD
:101050003A765A767575CB9C66F786F766F766F72B
:1010600066F766F766F7A5FFEABD1AC6FFFFFFFF42
:10107000FFFFFFFFFFFF39C6B3941CE7FFFFFFFF31
:10108000D7BD767D396E3A765A76396E3A76396EB4
:10109000396E5A7639765A6ED86DAE8CC8E685FFB1
:1010A00066F766F766F766F766F766F7A5FFEBC5BE
:1010B0001AC6FFFFFFFFFFFFFFFFFFFFFFFFFFFF5E
:1010C000FFFFFFFFFFFF59CE767D196E5A765A76E5
:1010D000396E3A76396E396E5A765A765A76767510
:1010E000CA9C85FF66F766F766F766F766F766F7E8
:1010F00066F7A5FFA9BDF9BDFFFFFFFFFFFFFFFFDB
:10110000FFFFFFFFFFFFFFFFFFFFFFFF14A5557568
:10111000597639765A76396E3A76396E396E5A760C
:101120005A6EF86DCF8488DE85F766F766F766F746
:1011300066F766F766F766F7A5FFA8BD97ADDFFF10
:10114000FFFFFFFFFFFFFFFFFFFFFFFFFFFFFFFFAF
:10115000DFFFB29C0F74F8755A6E5A76396E3A7684
:10116000396E396E5A765A76B86D6B8C85FF66F794
:1011700066F766F766F766F766F766F766F785FF60
:1011800007E72FA55BCEFFFFFFFFFFFFFFFFFFFF7E
:10119000FFFFFFFFFFFFF8BD4DAD2C84B76D5A7602
:1011A0005A76396E3A767A6E7A6E7A767B6ED86D2A
:1011B000AB94A5FFA5FFA5FFA5FFA5FFA5FFA5FF74
:1011C000A5FF65F766F7C5FF26CEB0945BCEFFFF9F
:1011D000FFFFFFFFFFFFFFFFBFF719C6EEA4E6E624
:1011E0000B9DB86D5A6E5A76396E3A76F87DF46476
:1011F000356D356DD36C0B7CC9C5C9BDC9BDC9BDC5
:10120000C9BDE9C588B508C667F766F766F7A6FFE2
:1012100026CEEE9C77ADD9BD5BC63BC6F9BD75AD9C
:101220004BAD27EFC5FFEB9CD86D7B6E7A6E396EA8
:101230003A760C53518418C618C618C6F7BD18C69E
:1012400018C618C618C618C618C656A5CE7BE8C557
:10125000A5FF66F766F7C5FFE7E648AD69B5CBBD04
:10126000CBBD8AB5EBA449D6C7E688DEAB9C557DDD
:10127000B77DB77D5A6E5A6EEC5AFBDEFFFFFFFF5B
:10128000FFFFFFFFFFFFFFFFFFFFFFFFFFFFFFFF6E
:10129000FFFF56ADE99CC5FF66F766F766F785FF69
:1012A000C5FFA5FFA5FFC5FF08CE69BC09BC0ABCE8
:1012B0000ABC89A3CBA3ECABECA3B27C396EB2948D
:1012C000FFFFFFFFFFFFFFFFFFFFFFFFFFFFFFFF2E
:1012D000FFFFFFFFFFFFFFFFBCD66BB5A5FF66F763
:1012E00066F766F766F766F766F785FF89DECA93E5
:1012F00087C2C5EAC6E2C6E2E6E2C5EAC5EAC5E2D9
:10130000E98214758E73DFFFFFFFFFFFFFFFFFFF12
:10131000FFFFFFFFFFFFFFFFFFFFFFFFFFFFF9BD25
:101320000AA5A5FF66F766F766F766F766F766F73C
:1013300086F707EF6AA4E89AE7AAE8AAE8AAE8AA63
:10134000E8AAE8AAE8A20F84967DEB52518CB7BDBB
:10135000D7BDD7BDD7BDF8BDB8B5B8B5B8B5B8B568
:10136000D9BD169DAF7389BDA5FF66F766F766F711
:1013700066F766F766F785F7C8E64AA4E8B2C6CA14
:10138000E7C2E7C2E7C2E7C2E7C2C7BAAD83557D8D
:10139000356DB35C767576759775F56C2C8469D66A
:1013A00049CE29CE29CE49CEC8BDC6C527EF86F77E
:1013B00066F766F766F766F766F766F785F7E8E6B5
:1013C000EA93A7BAE6DAE6DAE6DAE6DAE6DAE6DABF
:1013D000E6D2E98255759B767A6E7A6E5A6E7A6E8F
:1013E000F96DCF8448D6C4FFA5FFA5FFA5FFA5FFD3
:1013F000C5FF85FF66F766F766F766F766F766F777
:1014000066F766F786FF68D6CABC8ABCEAA3CC9B9F
:101410002E9C4E9C4E9C4F9C55753A6E396E396E83
:101420005A76397639765A769775AD9408EF85FFF6
:1014300066F766F766F766F766F766F766F766F7C4
:1014400066F766F766F766F766F766F786FF47F7AB
:1014500089DE8C945575F875F875F87518765A6E9E
:101460005A76396E396E5A76397639765A763A76B0
:10147000F36C4A8C08EF85FF66F766F766F766F748
:1014800066F766F766F766F766F766F766F766F774
:1014900066F785FF28EF6994F36C5A6E5A6E5A6EA0
:1014A0005A6E7A6E396E3A76396E396E5A76397668
:1014B000397639765A76196E93644A8C08EF85FF2F
:1014C00066F766F766F766F766F766F766F766F734
:1014D00066F766F766F785FF08EF4A947264196E3F
:1014E0005A763976397639765A76396E3A76396E51
:1014F000396E5A7639763976397639765A763A6E41
:10150000146D4C8CA9BD66F765F766F766F766F74C
:1015100086F766F766F766F765F766F7C9BD4C8C20
:10152000F46C3A6E5A7639763976397639765A7657
:10153000396E3A76396E396E5A7639763976397629
:10154000397639765A765A6E9775907C2B84AABD77
:1015500027EF65F766F765F766F765F727EFAABD2A
:101560002B84907C97755A6E5A763976397639760F
:10157000397639765A76396E3A76396E396E5A76C8
:101580003976397639763976397639765A765A76A1
:10159000F96D976D347DAE8CAC94AC942B84AC9487
:1015A000AC94AE8C337D976DF96D5A765A76397658
:1015B000397639763976397639765A76396E3A7699
:1015C000396E5A767A767A767A767A767A767A7604
:1015D0007A767A767A767A767B765A76196EF97595
:1015E000F975F96DF975F975196E5A767B767A7613
:1015F0007A767A767A767A767A767A767A767A766B
:101600007A765A763A6E396E396E5A7639763976F6
:101610003976397639763976397639763976397652
:101620003A6E5A6E5A6E5A6E5A765A6E5A6E5A6E92
:101630003A6E397639763976397639763976397639
:101640003976397639765A7639763A762018205FA7
:10165000000000000000000000000000000000008A
:10166000000000000000000000000000000000007A
:10167000000000000000000000000000000000006A
:10168000000000000000000000000000000000005A
:10169000000000000000000000000000000000004A
:1016A000000000000000000000000000000000003A
:1016B000000000000000000000120000001F800079
:1016C000000DC000001EE0000033300000619800F3
:1016D00000CCCC0000CC6C00018036000302360048
:1016E00007061B00018E1B0000F61B0000061B00F6
:1016F00000061B0000061B000007FB000007FB00A4
:1017000000000000000000000000000000000000D9
:101710000000000007FFFE0007FFFF0006000300B7
:1017200006000300060633000606330006003300F9
:1017300006003300070033000380330001C033008C
:1017400000FC3300007C3300000C3F00000C1E0046
:10175000000C0000001BFC0000192400001FFC000E
:101760000000000000000000000000000000000079
:1017700000000000000000000080040000EFDC001A
:1017800000FFFC0000D02C0000C00C00018006000F
:101790000180060003000300030CC300030CC30018
:1017A0000300030003030300018A4600018FC60003
:1017B00000E01C0000703800003FF000000FC00087
:1017C0000000000000000000000000000000000019
:1017D000000000000000000000E01E0003F7BF0052
:1017E00003FFFF0003F03F0003E01F00018006003D
:1017F000019C66000335B30003353300033CF3005E
:10180000037C7B0003387300018006000180060022
:1018100000E01C0000703800003FF000000FC00026
:1018200000000000000000000000000000000000B8
:101830000000000000000000000FE00000303F004A
:1018400000400080008000800100008001300080A6
:10185000023000800200018002000100020001004D
:101860000201010002010100027F010002410100AA
:1018700002410200024102000138FC000188000020
:1018800000780000000000000000000000000000E0
:101890000000000000078000001FE000003FF00093
:1018A000007FF800007FFC0000FFFC0000FFFC0050
:1018B00001C00E00019FE600018CC60001CCCE00E5
:1018C00001C00E0001CCCE000197A60001800600E9
:1018D0000180060000C00C0000FFFC00003FF0008B
:1018E00000000000000000000000000000000000F8
:1018F00000000000000000000000000000000000E8
:101900000000000001C0000006C003000440028087
:10191000064002400E200140012E032000910220CB
:101920000085FE20044569200CC300201FE00060F4
:1019300010000040180E99800FF8E100000FBF0062
:101940000000000000000000000000000000000097
:1019500000000000000000000070380000FFFC00E4
:10196000008FC60001BFF60001F87E0001E01F00F5
:1019700003C00F0003800700038CC600038CC70060
:10198000038007000383070003C94F0003CFCF0084
:1019900003C00F0000F03C0000FCFC00003FF00022
:1019A0000003000000000000000000000000000034
:1019B000000000000000000000078000000FC000D1
:1019C0000019E0000039E000005FE000003FE000A7
:1019D0000017E0000013F0000013F0000033F800DF
:1019E0000023F8000023FC000023F0000033F00087
:1019F000001BF000001FF0000021F800003FF8007D
:101A000000000000000000000000000000000000D6
:101A100000000000000000000000000000000000C6
:101A200000000020000000E0000000C01FFFFFC019
:101A30001FFFFFC0107FFFC0157FFDC015BFF8E07E
:101A40000AFFF8600F3FF00007FFC00001FF8000B1
:101A5000000780000000800000000000000000007F
:101A60000000000000000000000000000000000076
:101A70000000000000000000000000000000000066
:101A800000000000000C0000000F0000001FC0005C
:101A900000FFE00001EFF1C003EFFB80066FFF00E5
:101AA0000E63FF0007F3FB8003EBF18000FFF040C3
:101AB000001C1000000000000000000000000000FA
:101AC0000000000000000000000000000000000016
:101AD0000000000000000000000100000003000002
:101AE00000070000000F00000017000000230100A5
:101AF00000C0830001804F0002603F0006603F008D
:101B000001804F0000C08300002301000017000087
:101B1000000F0000000700000003000000010000AB
:101B200000000000000000000000000000000000B5
:101B3000000000000000000000000000001FE000A6
:101B40000067980000F03C0001E79E0003EFFF00F3
:101B5000020C310003F8DF8007E8DF8007F81F8000
:101B600007F83F8007E8FF800728D380061CE18044
:101B700002172100021FE1000210210003F03F00C4
:101B80000000000000000000000000000000000055
:101B90000000000000000000001C70000014500055
:101BA0000092940000FABE0000FABE0000FBBE00E6
:101BB00000739C00000FE0000007C000001FF00051
:101BC0000007C000001FF000001FF0000007C00069
:101BD000000380000006C000000FE000000FE000DE
:101BE00000000000000000000000000000000000F5
:101BF00000000000000000000001C000000FE00035
:101C0000003FA000007FE000007DE00000F0000049
:101C100000F0000000FBE00000FFF00000FFF80013
:101C200000FFF800007FFC00007FFC00007FFC004C
:101C30000077FE000077FE0000771F0000771C8011
:101C40000000000000000000000000000000000094
:101C500000000000000FC0000030300000C00C0089
:101C60000180C6000101F2000203F1000207A10099
:101C700004076080040E0080040C0080041C0080B7
:101C8000041C0080041C0080023E0100023A010096
:101C9000011402000024060000200C000030300077
:101CA000000FC00000000000000000000000000065
:101CB0000000000000000000000000000000000024
:101CC0000000000007FFFF800500008005C00080C5
:101CD00007FFFF8007FFFF800400008004000080F2
:101CE00004000080040000800400008004000080E4
:101CF0000400008007FFFF800000000000000000DB
:101D000000000000000000000000000000000000D3
:101D100000000000000000000000000000000000C3
:101D2000000000000000000003FFFF8002000080B0
:101D300006FE3E8006FE00800600008006FFFE8054
:101D400006FEFE800600008007FFFF800400010001
:101D500007FFFF000000000000000000000000007E
:101D60000000000000000000000000000000000073
:101D70000000000000000000000000000000000063
:101D8000000038000000C600000082000000820051
:101D900003FF838002004480060738800618C08055
:101DA00006104080061040800618C080060700809C
:101DB00007FFFF800400010007FFFF000000000094
:101DC0000000000000000000000000000000000013
:101DD000000000000000000000440000004400007B
:101DE0000044000000FE00000082000000FE000031
:101DF00000FE000000FE0000007C0000001000005B
:101E0000001078000010CC00001084000010840046
:101E10000010840000198400000F0400000004007A
:101E200000000000000000000000000000000000B2
:101E300000000000000000000000000000000000A2
:101E400000000000007C00000092000000920000F2
:101E50000082000000EE000000820000007C000014
:101E6000001078000010CC000010840000108400E6
:101E70000010840000198400000F0400000004001A
:101E80000000000000000000000000000000000052
:101E9000000000000000000000020000000200003E
:101EA0000047100000CF980000EFB80001DFDC0011
:101EB00003CF9E0001FFFC0001FFFC0003DFDE00FA
:101EC00003AFAE0007FFFF0003DFDE0003BFEE003D
:101ED00007870F0007F77F0008E7388000E7380022
:101EE00000000000000000000000000000000000F2
:101EF00000000000000000000037B0000037B00014
:101F0000003FF000003FF000003FF000001FE00045
:101F1000000FC000000300000003000003C30F0017
:101F200001E31E0000F33C00007B7800003FF0005E
:101F3000001FE000000FC000000780000003000049
:101F40000000000000000000000000000000000091
:101F50000000000000020000000200000007000076
:101F6000000500000002000000078000001FC00004
:101F700000272000001FC000003FE000007FF000AD
:101F8000009FC800003FE00000FFF80001FFFC00D8
:101F900003FFFE0004070100000700000007000027
:101FA0000000000000000000000000000000000031
:101FB000000000000000000000190000001B80006D
:101FC000001FC000001FE000001FF000003FF800ED
:101FD000007FFC0000FFFE0000E10E0000E10E00AB
:101FE00000E10E0000FFFE0000FFFE0000E10E0019
:101FF00000E10E0000E10E0000FFFE0000FFFE0009
:1020000000000000000000000000000000000000D0
:102010000000000000000000007FFC000040040001
:102020000059B4000059B40000400400004004000E
:102030000059B4000059B4000040040000400400FE
:102040000059B4000059B4000040040000400400EE
:10205000004184000041840000418400007FFC00B6
:102060000000000000000000000000000000000070
:102070000000000003FFE0000200200002FFA000BB
:102080000200200002FFA0000200200002FFA000CA
:102090000200200002FFA0000200200002FFA000BA
:1020A00002FFA0000200200002FFA00002002000AA
:1020B000023E2000023E2000023E200003FFE0001E
:1020C0000000000000000000000000000000000010
:1020D000000000000003000000030000000FC0002B
:1020E000000FC0000003000000030000000FC0004C
:1020F000001FE000007FF80000FFFC0001FFFE0071
:1021000001FCFE0001F87E0001F87E0001F87E006F
:1021100001F87E0001F87E0001F87E0001F87E00E3
:1021200000000000000000000000000000000000AF
:10213000000000000000000001FDFC00032226005A
:10214000020002000200020000222600007DFC00C6
:102150000300000003000000030000000308420029
:102160000318C6000339CE00037BFE0003FFFE0008
:1021700003FFFE0003FFFE0003FFFE0003FFFE005F
:10218000000000000000000000000000000000004F
:102190000000000000010000180FC06017DFEFA072
:1021A000107138201031302010D12C201F1FE3E097
:1021B000001FE000001FC000001FC000001FC00083
:1021C000001FC000001FC000001FE000001FE00053
:1021D000001FE000001FE000001FE000001FE00003
:1021E00000000000000000000000000000000000EF
:1021F0000000000000000000000FE000000C600084
:10220000000920000009A00000082000000C600068
:10221000000FE000007FFC00007FFC00007FFC005E
:1022200001FFFF0001FC7F0001F83F0001F83F00C3
:1022300001F83F0001F83F0001F83F0001F83F00BE
:10224000000000000000000000000000000000008E
:102250000000000000080000000F0000000BE0007C
:102260000008780000080800000F0800000BE800D4
:1022700000087800000808000008080000080800AE
:1022800000080800000808000078080000F80800AE
:1022900001F8080001F0780001E0F8000001F80002
:1022A0000001F0000000E00000000000000000005D
:1022B0000000000000000000001C3800003E7C0010
:1022C000003E7C00003E7C00001C38000100000045
:1022D00001CFF00001FFF00001FFF00001FFF0006E
:1022E00001CFF0000107E0000005A000000DB000E4
:1022F00000099000001998000011880000318C003E
:1023000000000000000000000000000000000000CD
:102310000000000000000000007FFE0000A014008C
:102320000140140001C018000140180001402800BD
:1023300001FFF800014018000140140000C01C001B
:1023400000A0140000A00C00007FFC0000A00E0004
:1023500000E00C0000E00C0000C0140001FFF800D9
:10236000000000000000000000000000000000006D
:1023700000000000000000000000000000000E004F
:102380000001F600003ECE0003F9F000023E00001E
:1023900003FFFE00031CE20003FFFE00007FFE00BF
:1023A000007FFE00007FFE00007FFE00007FFE0039
:1023B000007FFE00007FFE00000000000000000023
:1023C000000000000000000000000000000000000D
:1023D000000000000000000000FFE000008220007C
:1023E0000082200000FF20000081200000FFE000AC
:1023F000008E200000FFE0000080200000FFE000D1
:10240000008720000085E00000FD300000152E0050
:10241000006F2A000041EE00003C3C000007F00085
:1024200000000000000000000000000000000000AC
:10243000000000000000000000200000002000005C
:102440000050000000580000005700000029000064
:10245000002C800000248000001250000049B800C9
:102460000044F00000435C0000A0BF80071D7F8097
:1024700000A08F80004007000040000000400000E6
:10248000000000000000000000000000000000004C
:102490000000000000000000000F00000030C0003D
:1024A000002040000040230000402600004026009D
:1024B00000402E0000205A000030F100000F1900EB
:1024C00000051E0000773C00007C7C0000FFF80047
:1024D000007FF000001FE0000007C0000000C00007
:1024E00000000000000000000000000000000000EC
:1024F0000000000000000000000120000006D800DD
:102500000004C800000DA8000015FC000065A6002E
:1025100000E3720001F69C0003FB670000FC9700DB
:10252000007E3F00003DFF80001750000039D800BA
:10253000000EC8000004C8000009B800001B00001D
:102540000004000000000000000000000000000087
:102550000000000000101800001010000408200007
:10256000020BA0C00103E1000083F200000FFC0099
:102570000033FE000861FF0007763F0000780F007F
:10258000007C0F00003E0600009FF800010FFA00DB
:102590000607F9000803F880001BF8C000100000CF
:1025A0000020840000208400000080000000000063
:1025B0000000000000000000000000000003000018
:1025C00000030000000FC000001FE000003FF0000B
:1025D000007FF8000064980000649800007FF80015
:1025E0000000000001FFFE0003FFFF0007FFFF8067
:1025F00001F7BE0001F7BE0000E31C000000000070
:1026000000000000000000000000000000000000CA
:1026100000000000000000000000000000000000BA
:102620000000000000000000000000000003F800AF
:102630000FC7FC0001FFFC000007FC000007FC00C6
:102640000000000000FFFF0001FFFF8001FFFF808E
:1026500001FFFF8001FFFF800100008001800180F9
:1026600000FFFF000000000000000000000000006C
:10267000000000000000000000007800001044008E
:10268000002024000047160000C89E0003504F00A1
:1026900004504F0002904F000788878007871F80F3
:1026A00007E53FC00FF77F000FF8FE0003FDFC00B9
:1026B000007DF800007FF000007FF000007FF00058
:1026C000000000000000000000000000000000000A
:1026D00000000000000180000003800000034000B3
:1026E00000024000000440000004C000000380001D
:1026F00000070000000E00000019C0000037E000D5
:102700000035700000353000003330000019200023
:10271000001CE0000007800000008000000E800028
:10272000000E800000070000000000000000000014
:102730000000000000000000000100000001800017
:102740000001C0000001E00000017000000118005D
:102750000001080000010800000108000001080055
:102760000001100000012000000100000001000035
:10277000000F0000003F0000003E0000003C000091
:102780000000000000000000000000000000000049
:10279000000000000000000007FFFF800400008030
:1027A00004FFFC8005FFFE8005FF068005FF068014
:1027B00005FF068005FFF68005FFF68005FFF68021
:1027C00005FFFE8005FFFE8005FFFE8005FFFE8001
:1027D00004000080059BC0800400008007FFFF808C
:1027E00000000000000000000000000000000000E9
:1027F000000000000000C000000180000002000096
:10280000000400000008000000100000002000008C
:1028100003FFFE00024F0E00024CE600027DF600B0
:10282000024BFA00024BFA00027BFA00027BFA002C
:10283000027DF600027CE600027F1E0001FFFC0024
:102840000000000000000000000000000000000088
:102850000000000000000000000FE0000016D000A3
:10286000001930000016D0000016D000001930000A
:102870000016D000003FF80000301800003FF800BC
:10288000003FF800003FF800002FE800002008009B
:10289000001FF0000003800000038000000FE00034
:1028A0000000000000000000000000000000000028
:1028B0000000000000000000000000000000000018
:1028C0000000000000FFFC0007FFFF800FFFFFC0BB
:1028D0000FC00FC0000FC0000F9CE7C000303000D9
:1028E000003030000060180000E01C0000F03C00E8
:1028F00001F03E0001F87E0001FFFE0001FFFE0036
:1029000000000000000000000000000000000000C7
:102910000000000000000000000003E000003C1088
:102920000001F008001E3C0400FC3E0401833C044E
:10293000010138040206B0047E18B0048117B00407
:1029400080E8B004C028B0045F9880042048800468
:1029500010048038080383C004019C0003FFE000DA
:102960000000000000000000000000000000000067
:102970000000000000000000000003E000001C1048
:102980000001E008000E0004007C00040183000444
:1029900001010004020080147E0080E481008FE4C5
:1029A00080C0BFE4C020B1C45F9080C420488004D0
:1029B00010048038080283C004019C0003FFE0007B
:1029C0000000000000000000000000000000000007
:1029D00000000000000000000FF0000008100000E0
:1029E00008100000780FFE004000020040000200C6
:1029F00041FFFFF8410000084200001042000010B3
:102A000044000020480000204800004050000080A2
:102A10005000008060000100600001007FFFFE00A8
:102A200000000000000000000000000000000000A6
:102A30000000000000000000001FE000003FF00068
:102A4000003030000030300007FFFF8007FFFF80BC
:102A500007FFFF8007FFFF8007FFFF8007FFFF8062
:102A600007FFFF8007FFFF8007FFFF8007FFFF8052
:102A700007FFFF8007FFFF8007FFFF8007FFFF8042
:102A80000000000000000000000000000000000046
:102A9000000000000000000000000000000FE00047
:102AA000001FF000073FF8000740040007FFFFC0C9
:102AB00007FFFFC007F83FC007F01FC007E00FC0C7
:102AC00007E00FC007E00FC007E00FC007E00FC02E
:102AD00007F01FC007F83FC007FFFFC007FFFFC098
:102AE00000000000000000000000000000000000E6
:102AF0000000000000000000000FC00000303000A7
:102B000000400800008304000103020001030200EA
:102B100002030100020301000203F9000203F900AD
:102B20000200010002000100010002000100020099
:102B3000008004000040080000303000000FC0009A
:102B40000000000000000000000000000000000085
:102B50000000000000000000000000000000000075
:102B600000000000000000000F00000010800000C6
:102B7000108003C010801FE00FF07F00003FF800BE
:102B8000001FE000001FE000003FF8000FF07F0092
:102B900010801FC0108003E0108000000F000000B4
:102BA0000000000000000000000000000000000025
:102BB00000000000000000000007C0000018300006
:102BC0000033D800002C680000501400005014009E
:102BD000005014000050140000FFFE0000FFFE0033
:102BE00000FEFE0000FC7E0000FEFE0000FEFE0077
:102BF000007EFC00003FF800001FF0000007C0004E
:102C000000000000000000000000000000000000C4
:102C100000000000000000000000F8000001FC00BF
:102C20000003FE000007C7000007C7000007C70039
:102C30000007FF00000FFF00000FFE00000FFC0068
:102C4000003FF800003F000000FE000000FC000014
:102C500003F8000003F0000003E0000003C00000E0
:102C60000000000000000000000000000000000064
:102C70000000000000000000000000000000000054
:102C800000000000003FF00000201000004008009D
:102C900000400800004008000080040001FFFF0021
:102CA000039FE700030FC300030FC300039FE70068
:102CB00003FFFF0000E01C0000E01C0000E01C001F
:102CC0000000000000000000000000000000000004
:102CD000000000000000000000000000000780006D
:102CE00000048000001FE0000020100000401000E1
:102CF00000400800004008000080040001FFFF00C1
:102D0000039FE700030FC300030FC300039FE70007
:102D100003FFFF0000E01C0000E01C0000E01C00BE
:102D200000000000000000000000000000000000A3
:102D3000000000000000000000FFFC0000E01C009C
:102D400001E01E0001FFFE00010002000100020080
:102D500001000200010002000100020001FFFE006C
:102D600001CFCE00018786000187860001CFCE000B
:102D700001FFFE000070380000703800007038005D
:102D80000000000000000000000000000000000043
:102D90000000000000000000007FFC00007FFC003D
:102DA0000040040000400400004004000040040013
:102DB000004004000040040000400400007FFC00CC
:102DC00000478C0000478C0000478C00007FFC000F
:102DD00000301800002008000040040001800300BB
:102DE00000000000000000000000000000000000E3
:102DF00000000000000000000007000000070000C5
:102E00000007000000078000000780000107800025
:102E10000187C0000187C00001FFFF8001FFFF8024
:102E200001FFFF800187C00001878000010780004B
:102E300000078000000700000007000000070000F6
:102E40000000000000000000000000000000000082
:102E50000000000000000000000000000000000072
:102E6000000000000FFFC0000FFFC0000FFFC000F8
:102E70000FFFFF000FFFF8800FFFF8800FFFF880B3
:102E80000FFFF84000003FC00FFFFFC00F01F9C067
:102E90000EC6F6C00DEF6F4001EF0F0000C6060032
:102EA0000000000000000000000000000000000022
:102EB000000000000000000000000000000001C051
:102EC000000006600000082000001E2000006E4088
:102ED0000000B58000034B0000049400001B680054
:102EE0000024B000005B400001A58000015A0000F2
:102EF000026C0000045000000CE000000F00000015
:102F000010000000000000000000000000000000B1
:102F10000000000000000000000040000000600011
:102F20000000F000000FC000003380000047800068
:102F3000008E63F0011C1E700138027002380270AE
:102F4000027B0270047C02700480027007800670AD
:102F50000B7FFBF00A0000700C0000000000000076
:102F60000000000000000000000000000000000061
:102F70000000000000001000000038000000F80011
:102F80000000F8000001F8000001F8000003F8005C
:102F90000003F0000007F0000005F000000F6000E3
:102FA000000DC000000F6000000BC0000016800084
:102FB000001200000022000000230000003C00007E
:102FC00000200000000000000000000000000000E1
:102FD00000000000000000000007FC0000181C00BA
:102FE000003FE400002024000027240000202400EB
:102FF00000202400002024000020240000202400C1
:10300000003FE400002024000027240000202400CA
:10301000002024000020280000203000003FE000B5
:1030200000000000000000000000000000000000A0
:103030000000000000000000001FE0000020100061
:103040000020100000305000002FD0000017E000DA
:103050000013A000000B4000000580000005800068
:103060000009400000112000001120000021100084
:1030700000279000002FD000002FD000001FE0009C
:103080000000000000000000000000000000000040
:10309000000000000000000007FDFF000C07018099
:1030A0003C0201E03402016034020160340201603C
:1030B00034020160340201603402016034020160B4
:1030C00034020160340201603402016037FAFF60AB
:1030D00038070160380200E03FFAFFE0000F80008F
:1030E00000000000000000000000000000000000E0
:1030F000000000000000000000FFFE000080020051
:1031000000800200008002000080020000800200B7
:1031100000800200008002000080020000800200A7
:1031200000800200008002000080020000803E005B
:1031300000802400008028000080300000FFE000B4
:10314000000000000000000000000000000000007F
:10315000000000000000000000FFFE0000800200F0
:103160000080020000BF8200008002000080020098
:1031700000BFFA0000BFFA000080020000BFFA00A2
:103180000080020000BFFA000080020000BFBE0005
:1031900000802400008028000080300000FFE00054
:1031A000000000000000000000000000000000001F
:1031B0000000000000000000000FFF8000080080F9
:1031C00000080080007FFC800040048001FFF48044
:1031D0000100148001001480017F9480010014809C
:1031E000017F948001001480017F9480010014808D
:1031F00001001480017F948001001480017F97807A
:1032000001001400017E140001001C0001FFF00009
:1032100000000000000000000FFFFFE00800002099
:10322000080003A009FC03A0080003A009FC03A0F8
:10323000080003A00800002008000020080000206B
:1032400009FFF8200800002009FFF82008000020EE
:1032500009FFF82008000020080000200FFFFFE011
:10326000000000000000000000000000000000005E
:1032700000000000000000000FFFFFE00C000060F5
:103280000A0000A009000120088002200840042054
:10329000082008200810102008082020080C6020B2
:1032A000081AB02008238820084004200880022043
:1032B000090001200A0000A00C0000600FFFFFE0E1
:1032C00000000000000000000000000000000000FE
:1032D000000000000000000001FFFC0001E01E00F3
:1032E00001E0DE0001E0DE0001E0DE0001E0DE00E2
:1032F00001E01E0001FFFE000180060001800600C3
:1033000001800600018006000180060001800600A1
:1033100001800600018006000180060001FFFE001A
:10332000000000000000000000000000000000009D
:10333000000000000000000003FFFF000200030087
:1033400002000300020003000200020003FFFF006E
:1033500003FFFF0003F8FF0003F07F0003F07F008E
:1033600003F07F0003F8FF0003FFFF0003FCFF00F2
:1033700003FCFF0003FCFF0003FCFF0003FFFF0052
:10338000000000000000000000000000000000003D
:10339000000000000000000000000000000000002D
:1033A0000000000007FFFF8007FFFF8007FFFF808E
:1033B00004F87C80048CC480058CC680058CC68093
:1033C00004FCFC8004F87C8007FFFF8007FFFF807F
:1033D00006FFFD800000000000000000000000006B
:1033E00000000000000000000000000000000000DD
:1033F0000000000000000000000FC000003E300090
:10340000007E080000FE04000178020001F782003F
:1034100002F8610003F0310003E3110003E31F0031
:1034200002231F0002103F0001187E000107FE006A
:103430000081FC000041F8000031F000000FC000E6
:10344000000000000000000000000000000000007C
:103450000000000000000000000FC0000031F0007C
:10346000005FF80000A7FC0001D9FE0001A7FE00E4
:1034700001D83E0003A01F0003A31F0003E31F00A9
:1034800003E31D0001E02E0001F03A0001FFEA0015
:1034900000FE7400007FC800003E3000000FC00036
:1034A000000000000000000000000000000000001C
:1034B000000000000000000001FFFE00010002000B
:1034C000017FFE00014006000140060001400600A9
:1034D00001400600014006000140060001400600D0
:1034E000017FFE0001FFFE0001FFFF00010001005F
:1034F000036F798002DFBC800200008003FFFF8041
:1035000000000000000000000000000000000000BB
:1035100000000000000000000001000000010000A9
:103520000003000000FE0000010000000100000098
:10353000010000001FFFFFC010000040100000400D
:1035400017BDEDC01000004017BDEDC010000040D9
:10355000177EEDC010000040100000401FFFFFC0AC
:10356000000000000000000000000000000000005B
:10357000000000000000000000000000003FF0001C
:1035800000400800004008000040080000407F00A4
:1035900000408980004088800380FF800000808098
:1035A000000080800000808000008080000080801B
:1035B000000080800000C1800000630000003E0029
:1035C00000000000000000000000000000000000FB
:1035D00000000000000000000000000000000000EB
:1035E00000000000000000000000000000000000DB
:1035F00000000000000000000000000000000000CB
:1036000001FFFF0001000100013FF900010001007E
:1036100001000900010001000100010001FFFF009D
:10362000000000000000000000000000000000009A
:103630000000000000010000000780000007C0003B
:10364000000BA000000BA0000009200000092000D2
:103650000007C00000052000001A20000013100021
:1036600000129000001C7800001C3800001C38007C
:10367000001C3800001C3800000C3000000E7000E8
:1036800000066000000000000000000000000000D4
:103690000000000000000000001870000025780005
:1036A0000027F800001FF000007FE00000FF80000E
:1036B00001FF800001FC800000F2400000E22000D9
:1036C00000012000000110000000900000008800B0
:1036D00000004400000024000000220000001C0044
:1036E00000000000000000000000000000000000DA
:1036F00000000000000000000000000000000000CA
:103700000000000000001E00000021000000210059
:1037100000004780000088000003078001EC2100C2
:103720000210DE00078300000084000000C80000D3
:10373000079000000210000001E0000000000000FF
:103740000000000000000000000000000000000079
:10375000000000000000000000000F0000001F80BB
:1037600000003F8000007F8000007F0000007E009E
:103770000001FC000000F800000160000002A00051
:1037800000050000000A00000014000000280000EE
:1037900000D00000012000000220000002400000D4
:1037A0000180000000000000000000000000000098
:1037B000000FFC0000080600000BF7000008008066
:1037C000000BFE800008008007FBFEC0064800C01A
:1037D000064B80C0064800C0065FFFC00650004090
:1037E00006506F4006506F4006506F4006576F40BE
:1037F00006576F4006576F4007D0004007FFFFC0D5
:1038000000000000000000000000000000000000B8
:10381000000000000000000000FFF0000080380001
:1038200000803C0000803C00008004000080040018
:10383000008004000080040003FFFF00020001007C
:103840000FFFFFC0092480400924804009FF804009
:1038500008000040080000400FFFFFC003FFFF000A
:103860000000000000000000000000000000000058
:103870000000000000000000000000000000000048
:10388000000000000078000000780000007BE000ED
:10389000007A2000007A200000FE3C000080040036
:1038A00003BF7700020001000200010003FFFF00D8
:1038B00001FFFE0001FFFC0001FFFC0000FFF8001B
:1038C00000000000000000000000000000000000F8
:1038D000000000000000000000070000000D800054
:1038E000001AC00000154000001740000012400000
:1038F0000067300000D2580001974C0002174200C8
:10390000021242000218C20003E73E0003E73E0035
:10391000003DE000003DE000000000000018C00095
:10392000003DE000000A80000002000000000000EE
:103930000000000000000000000000000000000087
:103940000000000000000000000700000038000038
:10395000007800000077FFC00037FDC0002FF8009E
:1039600003EFE7000467E8800893D0400991FE4028
:103970000BD0FE40091010400420088003C007004F
:103980000000000000000000000000000000000037
:103990000000000000000000000000000000000027
:1039A000000000000000000000000000000F000008
:1039B00000080000001FF0000034300003E44F80D6
:1039C00006725CC00C5A946008C9A6200889FE20C3
:1039D000080820200C101060063018C003E0078093
:1039E00000000000000000000000000000000000D7
:1039F0001010205F00000000000000000000000028
:103A000000000000000000000000000000000000B6
:103A1000000000000000000007000F800F800F80F2
:103A20000F800F800700070000000000070007005C
:103A30000700000000000E380E380E380E38063031
:103A40000000000000000000000000000000000076
:103A50000000000000000C300C300C307FFE7FFEB8
:103A60000C300C300C300C307FFE7FFE0C300C30F4
:103A70000C3000000000024002400FF81FF81A400E
:103A80001A401FF00FF8025802581FF81FF00240AA
:103A9000024000000000000000000E100E300E700A
:103AA00000E001C0038007000E700C700870000079
:103AB00000000000000000000F001980198019802C
:103AC0000F000F080F9819F818F018E019F00F9868
:103AD00000000000000000000700070007000E00C3
:103AE00000000000000000000000000000000000D6
:103AF000000000000000000000F001C0038007008B
:103B00000E000E000E000E000700038001C000F042
:103B100000000000000000000F00038001C000E072
:103B2000007000700070007000E001C003800F00A2
:103B3000000000000000000001801188099007E0EB
:103B400007E03FFC3FFC07E007E009901188018097
:103B50000000000000000000000000000180018063
:103B600001800FF00FF00180018001800000000053
:103B70000000000000000000000000000000000045
:103B80000000000000000000000007000700070020
:103B90000E00000000000000000000000000000017
:103BA00000001FF81FF800000000000000000000E7
:103BB0000000000000000000000000000000000005
:103BC00000000000000000000000070007000700E0
:103BD000000000000000000000020006000E001CB3
:103BE0000038007000E001C0038007000E001C00D8
:103BF00000000000000000000FF01C381C781CF8CA
:103C00001CF81DB81DB81F381F381E381C380FF09F
:103C100000000000000000000180018003801F8080
:103C20001F800380038003800380038003801FF0D4
:103C300000000000000000000FE01C701C3800387D
:103C4000007000E001C0038007000E381C381FF828
:103C500000000000000000000FE01C701C3800385D
:103C6000007003C003C0007000381C381C700FE0E7
:103C7000000000000000000000E001E003E006E0BA
:103C80000CE018E01FF81FF800E000E000E003F887
:103C900000000000000000001FF81C001C001C00B9
:103CA0001C001FE01FF0007800381C381C700FE06B
:103CB000000000000000000003E007000E001C00F0
:103CC0001C001FF01FF81C381C381C381C380FF063
:103CD00000000000000000001FFC1C1C1C1C1C1C21
:103CE000001C0038007000E001C0038003800380E6
:103CF00000000000000000000FF01C381C381C38C9
:103D00001F3807E007E01CF81C381C381C380FF07F
:103D100000000000000000000FF01C381C381C38A8
:103D20001C381FF80FF800380038007000E007C09A
:103D3000000000000000000000000000038003807D
:103D40000380000000000380038003800000000067
:103D5000000000000000000000000000038003805D
:103D60000380000000000380038003800700000040
:103D7000000000000000007000E001C003800700A8
:103D80000E001C001C000E000700038001C000E0B4
:103D900000700000000000000000000000003FFC78
:103DA0003FFC000000003FFC3FFC00000000000062
:103DB0000000000000001C000E000700038001C08E
:103DC00000E00070007000E001C0038007000E00FA
:103DD0001C000000000003C00FF01E7818380038E7
:103DE000007000E001C001C00000000001C001C07F
:103DF00001C0000000000FF81C1C1C1C1C1C1C1C1B
:103E00001CFC1CFC1CFC1CFC1C001C001C001FF0EF
:103E100007F800000000000003C007E00E701C3827
:103E20001C381C381C381FF81C381C381C381C382F
:103E300000000000000000001FF00E380E380E38A1
:103E40000E380FF00FF00E380E380E380E381FF007
:103E5000000000000000000007F00E381C381C00B5
:103E60001C001C001C001C001C001C380E3807F035
:103E700000000000000000001FE00E700E380E3839
:103E80000E380E380E380E380E380E380E701FE011
:103E900000000000000000001FF80E180E080E00C1
:103EA0000E300FF00FF00E300E000E080E181FF837
:103EB00000000000000000001FF80E180E080E00A1
:103EC0000E300FF00FF00E300E000E000E001F002F
:103ED000000000000000000007F00E381C381C38FD
:103EE0001C001C001C001CF81C381C380E3807F87D
:103EF00000000000000000001C701C701C701C7092
:103F00001C701FF01FF01C701C701C701C701C704B
:103F100000000000000000000FE003800380038029
:103F200003800380038003800380038003800FE00D
:103F3000000000000000000001FC00700070007034
:103F400000700070007038703870387038700FE092
:103F500000000000000000001E380E380E700EE059
:103F60000FC00F800F800FC00EE00E700E381E388D
:103F700000000000000000001F000E000E000E00F8
:103F80000E000E000E000E000E080E180E381FF860
:103F900000000000000000001C1C1E3C1F7C1FFCD9
:103FA0001FFC1DDC1C9C1C1C1C1C1C1C1C1C1C1C2D
:103FB00000000000000000001C1C1C1C1E1C1F1C1C
:103FC0001F9C1DDC1CFC1C7C1C3C1C1C1C1C1C1C8D
:103FD000000000000000000003E007F00E381C1C89
:103FE0001C1C1C1C1C1C1C1C1C1C0E3807F003E099
:103FF00000000000000000001FF00E380E380E38E0
:104000000E380FF00FF00E000E000E000E001F0015
:10401000000000000000000003E00F780E381C1CB8
:104020001C1C1C1C1C1C1C7C1CFC0FF80FF80038F2
:1040300000FC0000000000001FF00E380E380E38A3
:104040000E380FF00FF00E700E380E380E381E3886
:1040500000000000000000000FF01C381C381C3865
:104060001C000FE007F000381C381C381C380FF01B
:1040700000000000000000001FFC19CC11C401C0AA
:1040800001C001C001C001C001C001C001C007F0F2
:1040900000000000000000001C701C701C701C70F0
:1040A0001C701C701C701C701C701C701C700FE04D
:1040B00000000000000000001C701C701C701C70D0
:1040C0001C701C701C701C701C700EE007C00380FC
:1040D00000000000000000001C1C1C1C1C1C1C1C00
:1040E0001C1C1C9C1C9C1C9C0FF80FF80770077074
:1040F00000000000000000001C701C701C700EE02E
:1041000007C00380038007C00EE01C701C701C7089
:1041100000000000000000001C701C701C701C706F
:104120001C700EE007C003800380038003800FE053
:1041300000000000000000001FF81C381838107044
:1041400000E001C0038007000E081C181C381FF88F
:10415000000000000000000007F007000700070053
:10416000070007000700070007000700070007F027
:104170000000000000000000100018001C000E00ED
:104180000700038001C000E000700038001C000739
:10419000000000000000000007F0007000700070D8
:1041A000007000700070007000700070007007F008
:1041B000000000000000018003C007E00E701C3802
:1041C00000000000000000000000000000000000EF
:1041D00000000000000000000000000000000000DF
:1041E00000000000000000000000000000000000CF
:1041F0007FFF7FFF000000001C001C00070007007D
:1042000000000000000000000000000000000000AE
:10421000000000000000000000000000000000009E
:104220000FE0007000700FF01C701C701C700FD835
:1042300000000000000000001E000E000E000E0036
:104240000FF00E380E380E380E380E380E381BF0C0
:10425000000000000000000000000000000000005E
:104260000FE01C701C701C001C001C701C700FE008
:10427000000000000000000000F8007000700070F6
:104280000FF01C701C701C701C701C701C700FD800
:10429000000000000000000000000000000000001E
:1042A0000FE01C701C701FF01C001C701C700FE0D5
:1042B000000000000000000003E007700770070026
:1042C00007001FE01FE007000700070007001FC0EE
:1042D00000000000000000000000000000000000DE
:1042E0000FD81C701C701C701C700FF007F0007051
:1042F0001C700FE0000000001E000E000E000E00FB
:104300000EF00F380F380E380E380E380E381E38B3
:10431000000000000000000001C001C001C000005A
:104320000FC001C001C001C001C001C001C00FF831
:10433000000000000000000000700070007000002D
:1043400003F00070007000700070007000701C704E
:104350000CF007E0000000001E000E000E000E0032
:104360000E380E700EE00FC00EE00E700E381E38C4
:1043700000000000000000000FC001C001C001C02B
:1043800001C001C001C001C001C001C001C00FF8DF
:10439000000000000000000000000000000000001D
:1043A0001FF81C9C1C9C1C9C1C9C1C9C1C9C1C9CEE
:1043B00000000000000000000000000000000000FD
:1043C0001FE01C701C701C701C701C701C701C701A
:1043D00000000000000000000000000000000000DD
:1043E0000FE01C701C701C701C701C701C700FE0A7
:1043F00000000000000000000000000000000000BD
:104400001BF00E380E380E380E380E380FF00E0036
:104410000E001F000000000000000000000000006F
:104420001FB038E038E038E038E038E01FE000E066
:1044300000E001F0000000000000000000000000AB
:104440001EF00FF80F380E000E000E000E001F00B9
:10445000000000000000000000000000000000005C
:104460000FE01C301C300F8003E0187018700FE054
:104470000000000000000000000001000300070031
:104480001FF007000700070007000770077003E030
:10449000000000000000000000000000000000001C
:1044A0001C701C701C701C701C701C701C700FD851
:1044B00000000000000000000000000000000000FC
:1044C0001C701C701C701C701C700EE007C00380F8
:1044D00000000000000000000000000000000000DC
:1044E0001C1C1C1C1C1C1C9C1C9C0FF807700770BF
:1044F00000000000000000000000000000000000BC
:104500001CE01CE00FC0078007800FC01CE01CE00F
:10451000000000000000000000000000000000009B
:104520000E380E380E380E380E3807F003E000E073
:1045300001C01F800000000000000000000000001B
:104540001FE018E011C0038007000E201C601FE070
:10455000000000000000000001F8038003800380D9
:1045600007001C001C00070003800380038001F883
:1045700000000000000001C001C001C001C001C076
:1045800001C001C001C001C001C001C001C001C023
:1045900001C00000000000001F8001C001C001C078
:1045A00000E00038003800E001C001C001C01F80F9
:1045B00000000000000000001F1C3B9C39DC38F8A4
:1045C00000000000000000000000000000000000EB
:1045D0000000000000002100240027002A002D0018
:1045E0003000330001010000040107010A0100004E
:1045F00020002300260029002C002F00320000019B
:10460000000003010601090100000A0B02090C0D5C
:104610000E08070304010000000000000000000075
:10462000000000000000000000000000000000008A
:104630000000000012111000000000000000000047
:104640000000000000000000000000000000010267
:104650001020200808102040102040800201020194
:10466000080402010102040810204080804020104C
:1046700008040201800402018040201008040201A5
:10468000080402010102040810204080010204080D
:104690001020408000002200250028002B002E0062
:1046A0003100340002010000050108010B0105057D
:1046B0000505070508080808020202020A0A080898
:1046C00004040404010101010101010103030303C6
:1046D00003030303040707070C0C0C0C0C0C0C0C55
:1046E0000202020206060606060606060B0B0B0B66
:1046F0000B0B0B0BDE5511241FBECFEFD1E2DEBF3B
:10470000CDBF00E00CBF12E0A0E0B2E0E0EEFCEBB9
:1047100000E00BBF02C007900D92AE3FB107D9F782
:1047200025E0AEEFB2E001C01D92A636B207E1F778
:1047300013E2CBE7D3E200E006C021970109802F06
:10474000FE010E94665ECA37D10780E00807A9F71C
:104750000E94F3560C946E5E0C940000E3E3F3E0C9
:10476000A089B18982E08C93A485B5851C92A68529
:10477000B7858FEC8C93108EA489B58986E08C93D5
:10478000A289B3898C9180618C93A289B3898C9121
:1047900088608C93A289B3898C9180688C930288FD
:1047A000F389E02D80818F7D80830895E5E3F5E036
:1047B000A089B1899C91268D922B9C9382B9A28964
:1047C000B3899C91878D809589238C93A289B38925
:1047D0008C91978D892B8C9308958150823108F0AC
:1047E0005AC0E82FF0E08827E750FC4D8F4F0C941B
:1047F000665E19241D240B24112415244B24202427
:1048000026242A243024342438243E2442244B24D1
:1048100046244C245024809180008F778093800020
:104820000895809180008F7DF9CF80918000877FEF
:10483000F5CF84B58F7784BD089584B58F7DFBCF88
:104840008091B0008F778093B00008958091B00080
:104850008F7DF9CF809190008F778093900008959D
:10486000809190008F7DF9CF80919000877FF5CF68
:104870008091A0008F778093A00008958091A00080
:104880008F7DF9CF8091A000877FF5CF80912001A7
:104890008F77809320010895809120018F7DF9CF3B
:1048A00080912001877FF5CFCF93DF93282F30E0D1
:1048B000F901E85FF94B8491F901E25BF94BD4917E
:1048C000F901E255F94BC491CC23A1F081110E946A
:1048D000ED23EC2FF0E0EE0FFF1FE251FA4BA59114
:1048E000B491EC91ED2381E090E009F480E0DF9158
:1048F000CF91089580E090E0FACF1F93CF93DF939C
:10490000282F30E0F901E85FF94B8491F901E25B6F
:10491000F94BD491F901E255F94BC491CC23A9F09C
:10492000162F81110E94ED23EC2FF0E0EE0FFF1FF8
:10493000EC56F94BA591B4918FB7F894EC91111105
:1049400008C0D095DE23DC938FBFDF91CF911F91FC
:104950000895DE2BF8CFCF93DF9390E0FC01E25B6C
:10496000F94B24918255994BFC0184918823C9F01D
:1049700090E0880F991FFC01EC52FA4BA591B4917D
:10498000FC01EC56F94BC591D49161110DC09FB754
:10499000F8948C91209582238C93888128232883F6
:1049A0009FBFDF91CF910895623051F49FB7F89483
:1049B0003C91822F809583238C93E8812E2BEFCF1F
:1049C0008FB7F894EC912E2B2C938FBFEACF3FB783
:1049D000F89480911F0390912003A0912103B0913E
:1049E000220326B5A89B05C02F3F19F00196A11DF3
:1049F000B11D3FBFBA2FA92F982F8827BC01CD0129
:104A0000620F711D811D911D42E0660F771F881F87
:104A1000991F4A95D1F708958F929F92AF92BF92B6
:104A2000CF92DF92EF92FF924B015C010E94E7244C
:104A30006B017C010E94E7246C197D098E099F0996
:104A4000683E734081059105A8F321E0821A910820
:104A5000A108B10888EEC80E83E0D81EE11CF11C45
:104A600081149104A104B10429F7FF90EF90DF9025
:104A7000CF90BF90AF909F908F900895AF92BF92CC
:104A8000CF92DF92EF92FF920F931F93CF93DF931A
:104A90006C017B018B01040F151FEB015E01AE1849
:104AA000BF08C017D10759F06991D601ED91FC916B
:104AB0000190F081E02DC6011995892B79F7C50188
:104AC000DF91CF911F910F91FF90EF90DF90CF90EA
:104AD000BF90AF900895FC01538D448D252F30E099
:104AE000842F90E0821B930B541710F0CF960895FB
:104AF00001970895FC01918D828D981761F0A28D28
:104B0000AE0FBF2FB11D5D968C91928D9F5F9F73ED
:104B1000928F90E008958FEF9FEF0895FC01918DA3
:104B2000828D981731F0828DE80FF11D858D90E010
:104B300008958FEF9FEF0895FC01918D228D892FAD
:104B400090E0805C9F4F821B91098F739927089595
:104B500083E393E00E949C2521E0892B09F420E067
:104B6000822F0895FC01A48DA80FB92FB11DA35A5F
:104B7000BF4F2C91848D90E001968F739927848F7D
:104B8000A689B7892C93A089B1898C9183708064A0
:104B90008C93938D848D981306C00288F389E02D41
:104BA00080818F7D80830895EF92FF920F931F93F2
:104BB000CF93DF93EC0181E0888F9B8D8C8D9813D0
:104BC0001AC0E889F989808185FF15C09FB7F894DC
:104BD000EE89FF896083E889F98980818370806428
:104BE00080839FBF81E090E0DF91CF911F910F9173
:104BF000FF90EF900895F62E0B8D10E00F5F1F4F82
:104C00000F731127E02E8C8D8E110CC00FB607FC90
:104C1000FACFE889F989808185FFF5CFCE010E941E
:104C2000B225F1CFEB8DEC0FFD2FF11DE35AFF4FB5
:104C3000F0829FB7F8940B8FEA89FB8980818062AC
:104C4000CFCFCF93DF93EC01888D8823B9F0AA8969
:104C5000BB89E889F9898C9185FD03C0808186FD37
:104C60000DC00FB607FCF7CF8C9185FFF2CF808186
:104C700085FFEDCFCE010E94B225E9CFDF91CF9124
:104C8000089580E090E0892B29F00E94A8258111E9
:104C90000E94000080E090E0892B49F080E090E0E5
:104CA000892B29F00E94000081110E94000080E001
:104CB00090E0892B49F080E090E0892B29F00E9458
:104CC000000081110E94000080E090E0892B49F0F3
:104CD00080E090E0892B29F00E94000081110C9463
:104CE00000000895DC019B967C936E939A97FB01DC
:104CF00084919C968C939C973196E4919D96EC932D
:104D00009D97FB013296E4919E96EC939E976D5F82
:104D10007F4FFB0164919F966C9308958F929F92B1
:104D2000AF92BF92CF92DF92EF92FF920F931F93B9
:104D3000CF93DF93EC0169017A0162B9CA01B9012D
:104D400020E130E040E050E00E94285D812C912C71
:104D5000540182169306A406B5060CF0A6C1EA8992
:104D6000FB8990818F8D809589238083EA89FB89D7
:104D700080819F8D892B8083EA89FB8990818F8D2B
:104D8000809589238083EA89FB8980819F8D892B87
:104D90008083EA89FB8990818F8D80958923808328
:104DA000EA89FB8980819F8D892B8083EA89FB8931
:104DB00090818F8D809589238083EA89FB8980810A
:104DC0009F8D892B8083EA89FB8990818F8D8095C7
:104DD00089238083EA89FB8980819F8D892B808349
:104DE000EA89FB8990818F8D809589238083EA8968
:104DF000FB8980819F8D892B8083EA89FB89908143
:104E00008F8D809589238083EA89FB8980819F8D9E
:104E1000892B8083EA89FB8990818F8D80958923F6
:104E20008083EA89FB8980819F8D892B8083EA8931
:104E3000FB8990818F8D809589238083EA89FB8906
:104E400080819F8D892B8083EA89FB8990818F8D5A
:104E5000809589238083EA89FB8980819F8D892BB6
:104E60008083EA89FB8990818F8D80958923808357
:104E7000EA89FB8980819F8D892B8083EA89FB8960
:104E800090818F8D809589238083EA89FB89808139
:104E90009F8D892B8083EA89FB8990818F8D8095F6
:104EA00089238083EA89FB8980819F8D892B808378
:104EB000EA89FB8990818F8D809589238083EA8997
:104EC000FB8980819F8D892B8083EA89FB89908172
:104ED0008F8D809589238083EA89FB8980819F8DCE
:104EE000892B8083EA89FB8990818F8D8095892326
:104EF0008083EA89FB8980819F8D892B8083EA8961
:104F0000FB8990818F8D809589238083EA89FB8935
:104F100080819F8D892B8083EA89FB8990818F8D89
:104F2000809589238083EA89FB8980819F8D892BE5
:104F30008083EA89FB8990818F8D80958923808386
:104F4000EA89FB8980819F8D892B8083EA89FB898F
:104F500090818F8D809589238083EA89FB89808168
:104F60009F8D892B8083EA89FB8990818F8D809525
:104F700089238083EA89FB8980819F8D892B8083A7
:104F8000EA89FB8990818F8D809589238083EA89C6
:104F9000FB8980819F8D892B8083EA89FB899081A1
:104FA0008F8D809589238083EA89FB8980819F8DFD
:104FB000892B8083EA89FB8990818F8D8095892355
:104FC0008083EA89FB8980819F8D892B8083EA8990
:104FD000FB8990818F8D809589238083EA89FB8965
:104FE00080819F8D892B8083EA89FB8990818F8DB9
:104FF000809589238083EA89FB8980819F8D892B15
:105000008083EA89FB8990818F8D809589238083B5
:10501000EA89FB8980819F8D892B8083EA89FB89BE
:1050200090818F8D809589238083EA89FB89808197
:105030009F8D892B8083EA89FB8990818F8D809554
:1050400089238083EA89FB8980819F8D892B8083D6
:10505000EA89FB8990818F8D809589238083EA89F5
:10506000FB8980819F8D892B8083EA89FB899081D0
:105070008F8D809589238083EA89FB8980819F8D2C
:10508000892B8083EA89FB8990818F8D8095892384
:105090008083EA89FB8980819F8D892B80838FEFB4
:1050A000881A980AA80AB80A54CED701C6018F7088
:1050B0009927AA27BB27892B8A2B8B2B89F1C7011C
:1050C000B60120E130E040E050E00E94285D8B0115
:1050D0009C0140E050E0BA01041715072607370786
:1050E000FCF0EA89FB8990818F8D809589238083EC
:1050F000EA89FB8980819F8D892B8083EA89FB89DE
:1051000090818F8D809589238083EA89FB898081B6
:105110009F8D892B80834F5F5F4F6F4F7F4FDCCF19
:10512000DF91CF911F910F91FF90EF90DF90CF9083
:10513000BF90AF909F908F9008958F929F92AF9263
:10514000BF92CF92DF92EF92FF920F931F93CF9374
:10515000DF93EC016801790162B948B9C901B8016E
:1051600020E130E040E050E00E94285D812C912C4D
:10517000540182169306A406B5060CF0D6C0EA893F
:10518000FB8990818F8D809589238083EA89FB89B3
:1051900080819F8D892B8083EA89FB8990818F8D07
:1051A000809589238083EA89FB8980819F8D892B63
:1051B0008083EA89FB8990818F8D80958923808304
:1051C000EA89FB8980819F8D892B8083EA89FB890D
:1051D00090818F8D809589238083EA89FB898081E6
:1051E0009F8D892B8083EA89FB8990818F8D8095A3
:1051F00089238083EA89FB8980819F8D892B808325
:10520000EA89FB8990818F8D809589238083EA8943
:10521000FB8980819F8D892B8083EA89FB8990811E
:105220008F8D809589238083EA89FB8980819F8D7A
:10523000892B8083EA89FB8990818F8D80958923D2
:105240008083EA89FB8980819F8D892B8083EA890D
:10525000FB8990818F8D809589238083EA89FB89E2
:1052600080819F8D892B8083EA89FB8990818F8D36
:10527000809589238083EA89FB8980819F8D892B92
:105280008083EA89FB8990818F8D80958923808333
:10529000EA89FB8980819F8D892B8083EA89FB893C
:1052A00090818F8D809589238083EA89FB89808115
:1052B0009F8D892B8083EA89FB8990818F8D8095D2
:1052C00089238083EA89FB8980819F8D892B808354
:1052D000EA89FB8990818F8D809589238083EA8973
:1052E000FB8980819F8D892B8083EA89FB8990814E
:1052F0008F8D809589238083EA89FB8980819F8DAA
:10530000892B8083EA89FB8990818F8D8095892301
:105310008083EA89FB8980819F8D892B80838FEF31
:10532000881A980AA80AB80A24CFD701C6018F7034
:105330009927AA27BB27892B8A2B8B2B21F1C70101
:10534000B60120E130E040E050E00E94285D8B0192
:105350009C0140E050E0BA01041715072607370703
:1053600094F0EA89FB8990818F8D809589238083D1
:10537000EA89FB8980819F8D892B80834F5F5F4FF6
:105380006F4F7F4FE9CFDF91CF911F910F91FF902A
:10539000EF90DF90CF90BF90AF909F908F90089547
:1053A000FC01283009F4F3C018F4213041F00895CD
:1053B000203109F407C1213109F407C10895878517
:1053C000843009F0C2C0A08DB18D82A19C91613062
:1053D00009F0B8C0892B8C93A28DB38D9C9183A1C9
:1053E000809589238C93A28DB38D8C9193A1892B69
:1053F0008C93A08DB18D82A19C9147FFB0C0892B69
:105400008C93A28DB38D9C9183A1809589238C93DD
:10541000A28DB38D8C9193A1892B8C93A08DB18D8E
:1054200082A19C9146FF9EC0892B8C93A28DB38D47
:105430009C9183A1809589238C93A28DB38D8C91AF
:1054400093A1892B8C93A08DB18D82A19C9145FF56
:105450008CC0892B8C93A28DB38D9C9183A1809558
:1054600089238C93A28DB38D8C9193A1892B8C93DE
:10547000A08DB18D82A19C9144FF7AC0892B8C9321
:10548000A28DB38D9C9183A1809589238C93A28D4D
:10549000B38D8C9193A1892B8C93A08DB18D82A11A
:1054A0009C9143FF68C0892B8C93A28DB38D9C91F6
:1054B00083A1809589238C93A28DB38D8C9193A128
:1054C000892B8C93A08DB18D82A19C9142FF56C0F7
:1054D000892B8C93A28DB38D9C9183A18095892378
:1054E0008C93A28DB38D8C9193A1892B8C93A08DDD
:1054F000B18D82A19C9141FF44C0892B8C93A28DD8
:10550000B38D9C9183A1809589238C93A28DB38DBB
:105510008C9193A1892B8C93A08DB18D82A19C91AC
:1055200040FF32C0892B8C93A28DB38D9C9183A1B7
:10553000809589238C93A28DB38D8C9193A1892B17
:105540008C9308958095892346CFA089B189868D53
:105550009C91613009F44BCF8095892349CF809588
:1055600089234ECF8095892360CF8095892372CF80
:105570008095892384CF8095892396CF8095892330
:10558000A8CF80958923BACF80958923CCCF62B9E3
:10559000A289B3899C91878D809589238C93A28958
:1055A000B3898C91978D892B8C9342B9A289B38949
:1055B0009C91878D809589238C93A289B3898C9146
:1055C000978DBDCF62B948B9F1CFA59854B3262FB6
:1055D000062E000C330BC901880F991F8072852B92
:1055E00084BB80910201877E809302015091020169
:1055F000C901A3E095958795AA95E1F78871852B58
:10560000809302018EB1847C8EB95EB1C901880F8E
:10561000991F880F991F80736370862B3595279586
:10562000359527952870820F852B8EB9A48DB58D61
:105630009C9184A1809589238C93A48DB58D8C91A8
:1056400094A1892B8C93A48DB58D9C9184A1809578
:1056500089238C93A489B5899C9180A18095892305
:105660008C93A59854B3242F042E000C330BC9013E
:10567000880F991F8072852B84BB80910201877EE1
:105680008093020150910201C90173E095958795BD
:105690007A95E1F78871852B809302018EB1847C25
:1056A0008EB95EB1C901880F991F880F991F807349
:1056B0004370482B35952795359527952870420FCF
:1056C000452B4EB9A289B3899C91878D80958923FA
:1056D0008C93A289B3898C91978D892B8C93A48903
:1056E000B5898C9190A12BCF462FDC011E962C9171
:1056F0001E97213079F05096ED91FC9151972081C1
:105700005E963C915E97232B20831E962C9160E041
:105710000C94D02921E061E0FBCF1F93CF93DF935E
:10572000EC012E85213069F0E889F98920813E8DD0
:10573000232B20832E85CE01DF91CF911F910C94D6
:10574000D029142F462F21E061E00E94D0292E8518
:10575000412F61E0F0CF462F672F0C948D2B462F01
:10576000DC011E962C911E97213081F05096ED9110
:10577000FC91519730815E962C915E972095232362
:1057800020831E962C9160E00C94D02921E0FBCF61
:105790000F931F93CF93DF93EC018A010E94AF2BED
:1057A000402F612FCE01DF91CF911F910F910C946B
:1057B0008D2BAF92BF92CF92DF92EF92FF920F9319
:1057C0001F93CF93DF93EC016B01B42EA52E7901CB
:1057D0008C81813069F489859A859C01261B370B61
:1057E0008E199F0978018901C42ED52EB82EA92EB5
:1057F000ED85E250ED3108F083C1F0E08827EC5FE1
:10580000F34D8F4F0C94665E4C2C802D782C782CA9
:10581000962C802D212C5E2DBB2C802DD12CD12CB3
:10582000FA2CFA2C4C2C5E2D292D4C2CD12C5E2DD3
:10583000782C162D802D5E2D5E2D5E2D5E2D472D34
:105840005E2D4D2D50E062E0CE010E94C82BA601D6
:1058500063E0CE010E94C82B4F2D50E064E0CE01E2
:105860000E94C82BA70165E0CE010E94C82B4A2DDB
:1058700050E066E0CE010E94C82B4B2D5A2D67E008
:10588000CE010E94C82B412F50E068E0CE010E945B
:10589000C82BA80169E01BC05E2D44274C0D5D1D7F
:1058A00064E4CE010E94C82B4B2D5A2D65E4CE0135
:1058B0000E94C82BA80166E4CE010E94C82BA60155
:1058C0006EE4CE010E94C82B4B2D5A2D6FE4CE0101
:1058D0000E94C82B62E2CE01DF91CF911F910F9100
:1058E000FF90EF90DF90CF90BF90AF900C94AF2BD4
:1058F000A60160E2CE010E94C82B4B2D5A2D61E219
:10590000CE010E94C82BA60160E5CE010E94C82BE3
:105910004B2D5A2D62E5CE010E94C82BA70161E5EF
:10592000CE010E94C82BA80163E5D1CF50E040E032
:1059300062E0CE010E94C82BA60163E0CE010E9466
:10594000C82B50E040E064E0CE010E94C82BA701C4
:1059500065E0CE010E94C82B50E040E066E0CE0139
:105960000E94C82B4B2D5A2D67E0CE010E94C82BF8
:1059700050E040E08ACF6AE2CE010E94AF2B6C2D4E
:10598000CE010E94742B6E2DCE010E94742B6BE20F
:10599000CE010E94AF2B6B2DCE010E94742B602F85
:1059A00025C06AE2CE010E94AF2B6A2DCE010E9473
:1059B000742B6B2DCE010E94742B612FCE010E949F
:1059C000742B602FCE010E94742B6BE2CE010E94DB
:1059D000AF2B6D2DCE010E94742B6C2DCE010E9439
:1059E000742B6F2DCE010E94742B6E2DCE010E9460
:1059F000742B4BC05E2D44274C295D2966E4CE01F3
:105A00000E94C82BA80167E4CE010E94C82B4B2D31
:105A10005A2D68E4CE010E94C82BA60160E2CE0197
:105A20000E94C82B4B2D5A2D61E251CFA70166E38E
:105A3000CE010E94C82BA60167E3CE010E94C82BAD
:105A4000A80168E3CE010E94C82B4B2D5A2D69E3B3
:105A5000E1CF6AE2CE010E94AF2B4C2D6D2DCE011D
:105A60000E948D2B4E2D6F2DCE010E948D2B6BE24F
:105A7000CE010E94AF2B4B2D6A2DCE010E948D2BA3
:105A8000402F612FCE010E948D2B6CE224CF4B2D35
:105A90005A2D62E0CE010E94C82BA60163E0CE0120
:105AA0000E94C82BA80166E0CE010E94C82BA70166
:105AB00067E0CE010E94C82B6FE00DCF6AE2CE01F5
:105AC0000E94AF2B6D2DCE010E94742B6C2DCE0148
:105AD0000E94742B6F2DCE010E94742B6E2DCE016F
